{
  "_format": "hh-sol-artifact-1",
  "contractName": "HashCreature_v1",
  "sourceName": "contracts/HashCreature_v1.sol",
  "abi": [
    {
      "inputs": [
        {
          "internalType": "string",
          "name": "_name",
          "type": "string"
        },
        {
          "internalType": "string",
          "name": "_symbol",
          "type": "string"
        },
        {
          "internalType": "uint256",
          "name": "_supplyLimit",
          "type": "uint256"
        },
        {
          "internalType": "address payable",
          "name": "_creator",
          "type": "address"
        }
      ],
      "payable": false,
      "stateMutability": "nonpayable",
      "type": "constructor"
    },
    {
      "anonymous": false,
      "inputs": [
        {
          "indexed": true,
          "internalType": "address",
          "name": "owner",
          "type": "address"
        },
        {
          "indexed": true,
          "internalType": "address",
          "name": "approved",
          "type": "address"
        },
        {
          "indexed": true,
          "internalType": "uint256",
          "name": "tokenId",
          "type": "uint256"
        }
      ],
      "name": "Approval",
      "type": "event"
    },
    {
      "anonymous": false,
      "inputs": [
        {
          "indexed": true,
          "internalType": "address",
          "name": "owner",
          "type": "address"
        },
        {
          "indexed": true,
          "internalType": "address",
          "name": "operator",
          "type": "address"
        },
        {
          "indexed": false,
          "internalType": "bool",
          "name": "approved",
          "type": "bool"
        }
      ],
      "name": "ApprovalForAll",
      "type": "event"
    },
    {
      "anonymous": false,
      "inputs": [
        {
          "indexed": true,
          "internalType": "address",
          "name": "iss",
          "type": "address"
        },
        {
          "indexed": true,
          "internalType": "uint256",
          "name": "tokenId",
          "type": "uint256"
        },
        {
          "indexed": true,
          "internalType": "uint256",
          "name": "priceReceived",
          "type": "uint256"
        }
      ],
      "name": "Burned",
      "type": "event"
    },
    {
      "anonymous": false,
      "inputs": [
        {
          "indexed": true,
          "internalType": "address",
          "name": "iss",
          "type": "address"
        },
        {
          "indexed": true,
          "internalType": "uint256",
          "name": "tokenId",
          "type": "uint256"
        },
        {
          "indexed": true,
          "internalType": "uint256",
          "name": "pricePaid",
          "type": "uint256"
        }
      ],
      "name": "Minted",
      "type": "event"
    },
    {
      "anonymous": false,
      "inputs": [
        {
          "indexed": true,
          "internalType": "address",
          "name": "from",
          "type": "address"
        },
        {
          "indexed": true,
          "internalType": "address",
          "name": "to",
          "type": "address"
        },
        {
          "indexed": true,
          "internalType": "uint256",
          "name": "tokenId",
          "type": "uint256"
        }
      ],
      "name": "Transfer",
      "type": "event"
    },
    {
      "constant": false,
      "inputs": [
        {
          "internalType": "address",
          "name": "to",
          "type": "address"
        },
        {
          "internalType": "uint256",
          "name": "tokenId",
          "type": "uint256"
        }
      ],
      "name": "approve",
      "outputs": [],
      "payable": false,
      "stateMutability": "nonpayable",
      "type": "function"
    },
    {
      "constant": true,
      "inputs": [
        {
          "internalType": "address",
          "name": "owner",
          "type": "address"
        }
      ],
      "name": "balanceOf",
      "outputs": [
        {
          "internalType": "uint256",
          "name": "",
          "type": "uint256"
        }
      ],
      "payable": false,
      "stateMutability": "view",
      "type": "function"
    },
    {
      "constant": false,
      "inputs": [
        {
          "internalType": "uint256",
          "name": "tokenId",
          "type": "uint256"
        }
      ],
      "name": "burn",
      "outputs": [],
      "payable": false,
      "stateMutability": "nonpayable",
      "type": "function"
    },
    {
      "constant": false,
      "inputs": [
        {
          "internalType": "address payable",
          "name": "_creator",
          "type": "address"
        }
      ],
      "name": "changeCreator",
      "outputs": [],
      "payable": false,
      "stateMutability": "nonpayable",
      "type": "function"
    },
    {
      "constant": true,
      "inputs": [],
      "name": "creator",
      "outputs": [
        {
          "internalType": "address payable",
          "name": "",
          "type": "address"
        }
      ],
      "payable": false,
      "stateMutability": "view",
      "type": "function"
    },
    {
      "constant": true,
      "inputs": [],
      "name": "description",
      "outputs": [
        {
          "internalType": "string",
          "name": "",
          "type": "string"
        }
      ],
      "payable": false,
      "stateMutability": "view",
      "type": "function"
    },
    {
      "constant": true,
      "inputs": [
        {
          "internalType": "uint256",
          "name": "tokenId",
          "type": "uint256"
        }
      ],
      "name": "getApproved",
      "outputs": [
        {
          "internalType": "address",
          "name": "",
          "type": "address"
        }
      ],
      "payable": false,
      "stateMutability": "view",
      "type": "function"
    },
    {
      "constant": true,
      "inputs": [],
      "name": "getChainId",
      "outputs": [
        {
          "internalType": "uint256",
          "name": "",
          "type": "uint256"
        }
      ],
      "payable": false,
      "stateMutability": "pure",
      "type": "function"
    },
    {
      "constant": true,
      "inputs": [
        {
          "internalType": "string",
          "name": "input",
          "type": "string"
        }
      ],
      "name": "getCidFromString",
      "outputs": [
        {
          "internalType": "string",
          "name": "",
          "type": "string"
        }
      ],
      "payable": false,
      "stateMutability": "view",
      "type": "function"
    },
    {
      "constant": true,
      "inputs": [
        {
          "internalType": "bytes32",
          "name": "hash",
          "type": "bytes32"
        },
        {
          "internalType": "uint256",
          "name": "transferCount",
          "type": "uint256"
        }
      ],
      "name": "getImageData",
      "outputs": [
        {
          "internalType": "string",
          "name": "",
          "type": "string"
        }
      ],
      "payable": false,
      "stateMutability": "view",
      "type": "function"
    },
    {
      "constant": true,
      "inputs": [
        {
          "internalType": "uint256",
          "name": "tokenId",
          "type": "uint256"
        }
      ],
      "name": "getMetaData",
      "outputs": [
        {
          "internalType": "string",
          "name": "",
          "type": "string"
        }
      ],
      "payable": false,
      "stateMutability": "view",
      "type": "function"
    },
    {
      "constant": true,
      "inputs": [
        {
          "internalType": "uint256",
          "name": "_supply",
          "type": "uint256"
        }
      ],
      "name": "getPriceToBurn",
      "outputs": [
        {
          "internalType": "uint256",
          "name": "",
          "type": "uint256"
        }
      ],
      "payable": false,
      "stateMutability": "view",
      "type": "function"
    },
    {
      "constant": true,
      "inputs": [
        {
          "internalType": "uint256",
          "name": "_supply",
          "type": "uint256"
        }
      ],
      "name": "getPriceToMint",
      "outputs": [
        {
          "internalType": "uint256",
          "name": "",
          "type": "uint256"
        }
      ],
      "payable": false,
      "stateMutability": "view",
      "type": "function"
    },
    {
      "constant": true,
      "inputs": [
        {
          "internalType": "uint256",
          "name": "",
          "type": "uint256"
        }
      ],
      "name": "hashMemory",
      "outputs": [
        {
          "internalType": "bytes32",
          "name": "",
          "type": "bytes32"
        }
      ],
      "payable": false,
      "stateMutability": "view",
      "type": "function"
    },
    {
      "constant": true,
      "inputs": [],
      "name": "initBurnPrice",
      "outputs": [
        {
          "internalType": "uint256",
          "name": "",
          "type": "uint256"
        }
      ],
      "payable": false,
      "stateMutability": "view",
      "type": "function"
    },
    {
      "constant": true,
      "inputs": [],
      "name": "initMintPrice",
      "outputs": [
        {
          "internalType": "uint256",
          "name": "",
          "type": "uint256"
        }
      ],
      "payable": false,
      "stateMutability": "view",
      "type": "function"
    },
    {
      "constant": true,
      "inputs": [
        {
          "internalType": "address",
          "name": "owner",
          "type": "address"
        },
        {
          "internalType": "address",
          "name": "operator",
          "type": "address"
        }
      ],
      "name": "isApprovedForAll",
      "outputs": [
        {
          "internalType": "bool",
          "name": "",
          "type": "bool"
        }
      ],
      "payable": false,
      "stateMutability": "view",
      "type": "function"
    },
    {
      "constant": false,
      "inputs": [],
      "name": "mint",
      "outputs": [],
      "payable": true,
      "stateMutability": "payable",
      "type": "function"
    },
    {
      "constant": true,
      "inputs": [],
      "name": "name",
      "outputs": [
        {
          "internalType": "string",
          "name": "",
          "type": "string"
        }
      ],
      "payable": false,
      "stateMutability": "view",
      "type": "function"
    },
    {
      "constant": true,
      "inputs": [],
      "name": "nonce",
      "outputs": [
        {
          "internalType": "uint256",
          "name": "",
          "type": "uint256"
        }
      ],
      "payable": false,
      "stateMutability": "view",
      "type": "function"
    },
    {
      "constant": true,
      "inputs": [
        {
          "internalType": "uint256",
          "name": "tokenId",
          "type": "uint256"
        }
      ],
      "name": "ownerOf",
      "outputs": [
        {
          "internalType": "address",
          "name": "",
          "type": "address"
        }
      ],
      "payable": false,
      "stateMutability": "view",
      "type": "function"
    },
    {
      "constant": false,
      "inputs": [
        {
          "internalType": "address",
          "name": "from",
          "type": "address"
        },
        {
          "internalType": "address",
          "name": "to",
          "type": "address"
        },
        {
          "internalType": "uint256",
          "name": "tokenId",
          "type": "uint256"
        }
      ],
      "name": "safeTransferFrom",
      "outputs": [],
      "payable": false,
      "stateMutability": "nonpayable",
      "type": "function"
    },
    {
      "constant": false,
      "inputs": [
        {
          "internalType": "address",
          "name": "from",
          "type": "address"
        },
        {
          "internalType": "address",
          "name": "to",
          "type": "address"
        },
        {
          "internalType": "uint256",
          "name": "tokenId",
          "type": "uint256"
        },
        {
          "internalType": "bytes",
          "name": "_data",
          "type": "bytes"
        }
      ],
      "name": "safeTransferFrom",
      "outputs": [],
      "payable": false,
      "stateMutability": "nonpayable",
      "type": "function"
    },
    {
      "constant": false,
      "inputs": [
        {
          "internalType": "address",
          "name": "to",
          "type": "address"
        },
        {
          "internalType": "bool",
          "name": "approved",
          "type": "bool"
        }
      ],
      "name": "setApprovalForAll",
      "outputs": [],
      "payable": false,
      "stateMutability": "nonpayable",
      "type": "function"
    },
    {
      "constant": true,
      "inputs": [],
      "name": "supplyLimit",
      "outputs": [
        {
          "internalType": "uint256",
          "name": "",
          "type": "uint256"
        }
      ],
      "payable": false,
      "stateMutability": "view",
      "type": "function"
    },
    {
      "constant": true,
      "inputs": [
        {
          "internalType": "bytes4",
          "name": "interfaceId",
          "type": "bytes4"
        }
      ],
      "name": "supportsInterface",
      "outputs": [
        {
          "internalType": "bool",
          "name": "",
          "type": "bool"
        }
      ],
      "payable": false,
      "stateMutability": "view",
      "type": "function"
    },
    {
      "constant": true,
      "inputs": [],
      "name": "symbol",
      "outputs": [
        {
          "internalType": "string",
          "name": "",
          "type": "string"
        }
      ],
      "payable": false,
      "stateMutability": "view",
      "type": "function"
    },
    {
      "constant": true,
      "inputs": [
        {
          "internalType": "uint256",
          "name": "tokenId",
          "type": "uint256"
        }
      ],
      "name": "tokenURI",
      "outputs": [
        {
          "internalType": "string",
          "name": "",
          "type": "string"
        }
      ],
      "payable": false,
      "stateMutability": "view",
      "type": "function"
    },
    {
      "constant": true,
      "inputs": [],
      "name": "totalSupply",
      "outputs": [
        {
          "internalType": "uint256",
          "name": "",
          "type": "uint256"
        }
      ],
      "payable": false,
      "stateMutability": "view",
      "type": "function"
    },
    {
      "constant": true,
      "inputs": [
        {
          "internalType": "uint256",
          "name": "",
          "type": "uint256"
        }
      ],
      "name": "transferCount",
      "outputs": [
        {
          "internalType": "uint256",
          "name": "",
          "type": "uint256"
        }
      ],
      "payable": false,
      "stateMutability": "view",
      "type": "function"
    },
    {
      "constant": false,
      "inputs": [
        {
          "internalType": "address",
          "name": "from",
          "type": "address"
        },
        {
          "internalType": "address",
          "name": "to",
          "type": "address"
        },
        {
          "internalType": "uint256",
          "name": "tokenId",
          "type": "uint256"
        }
      ],
      "name": "transferFrom",
      "outputs": [],
      "payable": false,
      "stateMutability": "nonpayable",
      "type": "function"
    }
  ],
  "bytecode": "0x60806040523480156200001157600080fd5b50604051620031e0380380620031e0833981016040819052620000349162000240565b6200004f6301ffc9a760e01b6001600160e01b03620000c416565b6200006a6380ac58cd60e01b6001600160e01b03620000c416565b83516200007f9060079060208701906200011f565b508251620000959060089060208601906200011f565b50600a91909155600c80546001600160a01b0319166001600160a01b0390921691909117905550620003e89050565b6001600160e01b03198082161415620000fa5760405162461bcd60e51b8152600401620000f19062000314565b60405180910390fd5b6001600160e01b0319166000908152602081905260409020805460ff19166001179055565b828054600181600116156101000203166002900490600052602060002090601f016020900481019282601f106200016257805160ff191683800117855562000192565b8280016001018555821562000192579182015b828111156200019257825182559160200191906001019062000175565b50620001a0929150620001a4565b5090565b620001c191905b80821115620001a05760008155600101620001ab565b90565b8051620001d181620003c3565b92915050565b600082601f830112620001e957600080fd5b815162000200620001fa826200034d565b62000326565b915080825260208301602083018583830111156200021d57600080fd5b6200022a83828462000390565b50505092915050565b8051620001d181620003dd565b600080600080608085870312156200025757600080fd5b84516001600160401b038111156200026e57600080fd5b6200027c87828801620001d7565b94505060208501516001600160401b038111156200029957600080fd5b620002a787828801620001d7565b9350506040620002ba8782880162000233565b9250506060620002cd87828801620001c4565b91505092959194509250565b6000620002e8601c8362000375565b7f4552433136353a20696e76616c696420696e7465726661636520696400000000815260200192915050565b60208082528101620001d181620002d9565b6040518181016001600160401b03811182821017156200034557600080fd5b604052919050565b60006001600160401b038211156200036457600080fd5b506020601f91909101601f19160190565b90815260200190565b60006001600160a01b038216620001d1565b60005b83811015620003ad57818101518382015260200162000393565b83811115620003bd576000848401525b50505050565b620003ce816200037e565b8114620003da57600080fd5b50565b620003ce81620001c1565b612de880620003f86000396000f3fe6080604052600436106101d85760003560e01c806342966c6811610102578063a22cb46511610095578063c87b56dd11610064578063c87b56dd146104f6578063d7374e8514610516578063e985e9c514610536578063ec02ef5714610556576101d8565b8063a22cb46514610481578063aa55f54a146104a1578063affed0e0146104c1578063b88d4fde146104d6576101d8565b806370a08231116100d157806370a08231146104175780637284e4161461043757806374580e2f1461044c57806395d89b411461046c576101d8565b806342966c681461039757806361eba552146103b75780636352211e146103d75780636cea27d9146103f7576101d8565b806318160ddd1161017a5780633152317f116101495780633152317f146103225780633408e47014610342578063373572cb1461035757806342842e0e14610377576101d8565b806318160ddd146102c357806319d1997a146102d857806323b872dd146102ed5780632e8ad69f1461030d576101d8565b8063081812fc116101b6578063081812fc14610257578063095ea7b3146102775780631249c58b146102995780631649229f146102a1576101d8565b806301ffc9a7146101dd57806302d05d3f1461021357806306fdde0314610235575b600080fd5b3480156101e957600080fd5b506101fd6101f8366004611c83565b610576565b60405161020a9190612a1c565b60405180910390f35b34801561021f57600080fd5b50610228610599565b60405161020a91906129d4565b34801561024157600080fd5b5061024a6105a8565b60405161020a9190612a38565b34801561026357600080fd5b50610228610272366004611cf4565b610636565b34801561028357600080fd5b50610297610292366004611c16565b610682565b005b610297610767565b3480156102ad57600080fd5b506102b6610933565b60405161020a9190612a2a565b3480156102cf57600080fd5b506102b661093e565b3480156102e457600080fd5b506102b6610944565b3480156102f957600080fd5b50610297610308366004611b20565b61094a565b34801561031957600080fd5b506102b6610987565b34801561032e57600080fd5b506102b661033d366004611cf4565b610992565b34801561034e57600080fd5b506102b66109c8565b34801561036357600080fd5b506102b6610372366004611cf4565b6109cc565b34801561038357600080fd5b50610297610392366004611b20565b6109de565b3480156103a357600080fd5b506102976103b2366004611cf4565b6109f9565b3480156103c357600080fd5b5061024a6103d2366004611cf4565b610a8a565b3480156103e357600080fd5b506102286103f2366004611cf4565b610b24565b34801561040357600080fd5b506102b6610412366004611cf4565b610b59565b34801561042357600080fd5b506102b6610432366004611ac8565b610b72565b34801561044357600080fd5b5061024a610bbb565b34801561045857600080fd5b50610297610467366004611ac8565b610bd8565b34801561047857600080fd5b5061024a610c24565b34801561048d57600080fd5b5061029761049c366004611be6565b610c7f565b3480156104ad57600080fd5b5061024a6104bc366004611c64565b610d4d565b3480156104cd57600080fd5b506102b6610eef565b3480156104e257600080fd5b506102976104f1366004611b6d565b610ef5565b34801561050257600080fd5b5061024a610511366004611cf4565b610f34565b34801561052257600080fd5b5061024a610531366004611cbf565b610f77565b34801561054257600080fd5b506101fd610551366004611ae6565b610fb1565b34801561056257600080fd5b506102b6610571366004611cf4565b610fdf565b6001600160e01b0319811660009081526020819052604090205460ff165b919050565b600c546001600160a01b031681565b6007805460408051602060026001851615610100026000190190941693909304601f8101849004840282018401909252818152929183018282801561062e5780601f106106035761010080835404028352916020019161062e565b820191906000526020600020905b81548152906001019060200180831161061157829003601f168201915b505050505081565b600061064182610ff1565b6106665760405162461bcd60e51b815260040161065d90612b19565b60405180910390fd5b506000908152600260205260409020546001600160a01b031690565b600061068d82610b24565b9050806001600160a01b0316836001600160a01b031614156106c15760405162461bcd60e51b815260040161065d90612b39565b806001600160a01b03166106d361100e565b6001600160a01b031614806106ef57506106ef8161055161100e565b61070b5760405162461bcd60e51b815260040161065d90612ac9565b60008281526002602052604080822080546001600160a01b0319166001600160a01b0387811691821790925591518593918516917f8c5be1e5ebec7d5bd14f71427d1e84f3dd0314c0f7b2291e5b200ac8c7c3b92591a4505050565b600a54600b541061078a5760405162461bcd60e51b815260040161065d90612ab9565b6000610797600b54610992565b9050803410156107b95760405162461bcd60e51b815260040161065d90612b59565b6009546107cd90600163ffffffff61101216565b600955600b546107e490600163ffffffff61101216565b600b8190556000906107f590610b59565b905060004360014303406108076109c8565b30336009546040516020016108219695949392919061296a565b604051602081830303815290604052805190602001209050806006600060095481526020019081526020016000208190555061085f3360095461103e565b600c546001600160a01b03166108fc61087e858563ffffffff61110516565b6040518115909202916000818181858888f193505050501580156108a6573d6000803e3d6000fd5b5060006108b9348563ffffffff61110516565b11156108fd57336108fc6108d3348663ffffffff61110516565b6040518115909202916000818181858888f193505050501580156108fb573d6000803e3d6000fd5b505b60095460405184919033907f25b428dfde728ccfaddad7e29e4ac23c24ed7fd1a6e3e3f91894a9a073f5dfff90600090a4505050565b66038d7ea4c6800081565b600b5481565b600a5481565b61095b61095561100e565b82611147565b6109775760405162461bcd60e51b815260040161065d90612b49565b6109828383836111cc565b505050565b6603328b944c400081565b60006109c26109ae8366038d7ea4c6800063ffffffff6112d216565b66038d7ea4c680009063ffffffff61101216565b92915050565b4690565b60066020526000908152604090205481565b61098283838360405180602001604052806000815250610ef5565b6000610a06600b54610b59565b9050610a12338361130c565b600b54610a2690600163ffffffff61110516565b600b55604051339082156108fc029083906000818181858888f19350505050158015610a56573d6000803e3d6000fd5b506040518190839033907f23ff0e75edf108e3d0392d92e13e8c8a868ef19001bd49f9e94876dc46dff87f90600090a45050565b6060610a9582610ff1565b610ab15760405162461bcd60e51b815260040161065d90612aa9565b600082815260066020908152604080832054600590925290912054610ad69190610d4d565b6007610ae1846113c4565b60405180610100016040528060c68152602001612ca660c69139604051602001610b0e9493929190612903565b6040516020818303038152906040529050919050565b6000818152600160205260408120546001600160a01b0316806109c25760405162461bcd60e51b815260040161065d90612ae9565b60006109c2826603328b944c400063ffffffff6112d216565b60006001600160a01b038216610b9a5760405162461bcd60e51b815260040161065d90612ad9565b6001600160a01b03821660009081526003602052604090206109c290611477565b60405180610100016040528060c68152602001612ca660c6913981565b600c546001600160a01b03163314610c025760405162461bcd60e51b815260040161065d90612b79565b600c80546001600160a01b0319166001600160a01b0392909216919091179055565b6008805460408051602060026001851615610100026000190190941693909304601f8101849004840282018401909252818152929183018282801561062e5780601f106106035761010080835404028352916020019161062e565b610c8761100e565b6001600160a01b0316826001600160a01b03161415610cb85760405162461bcd60e51b815260040161065d90612a89565b8060046000610cc561100e565b6001600160a01b03908116825260208083019390935260409182016000908120918716808252919093529120805460ff191692151592909217909155610d0961100e565b6001600160a01b03167f17307eab39ab6107e8899845ad3d59bd9653f200f220920489ca2b5937696c3183604051610d419190612a1c565b60405180910390a35050565b606080610d5d61016885066113c4565b610d8960058510610d6f576000610d84565b610d8085601463ffffffff6112d216565b6064035b6113c4565b604051602001610d9a929190612893565b60408051601f198184030181529190529050610168602d606060005b6020811015610eae5760006002898360208110610dcf57fe5b1a81610dd757fe5b069050600382166004830484610dee8784026113c4565b610dfc888460ff16026113c4565b60ff861615610e285760405180604001604052806005815260200164776869746560d81b815250610e2a565b8a5b610e3b8a8760070360ff16026113c4565b610e498b8760ff16026113c4565b60ff891615610e755760405180604001604052806005815260200164776869746560d81b815250610e77565b8d5b604051602001610e8d9796959493929190612726565b60405160208183030381529060405294505050508080600101915050610db6565b50610eb8836113c4565b610ec1846113c4565b82604051602001610ed49392919061283a565b60405160208183030381529060405294505050505092915050565b60095481565b610f06610f0061100e565b83611147565b610f225760405162461bcd60e51b815260040161065d90612b49565b610f2e8484848461147b565b50505050565b6060610f3f82610ff1565b610f5b5760405162461bcd60e51b815260040161065d90612aa9565b610f6761053183610a8a565b604051602001610b0e91906128cc565b60606109c2610fac610fa784604051602001610f939190612702565b6040516020818303038152906040526114ae565b611548565b61155b565b6001600160a01b03918216600090815260046020908152604080832093909416825291909152205460ff1690565b60056020526000908152604090205481565b6000908152600160205260409020546001600160a01b0316151590565b3390565b6000828201838110156110375760405162461bcd60e51b815260040161065d90612a69565b9392505050565b6001600160a01b0382166110645760405162461bcd60e51b815260040161065d90612af9565b61106d81610ff1565b1561108a5760405162461bcd60e51b815260040161065d90612a59565b600081815260016020908152604080832080546001600160a01b0319166001600160a01b0387169081179091558352600390915290206110c99061172f565b60405181906001600160a01b038416906000907fddf252ad1be2c89b69c2b068fc378daa952ba7f163c4a11628f55a4df523b3ef908290a45050565b600061103783836040518060400160405280601e81526020017f536166654d6174683a207375627472616374696f6e206f766572666c6f770000815250611738565b600061115282610ff1565b61116e5760405162461bcd60e51b815260040161065d90612a99565b600061117983610b24565b9050806001600160a01b0316846001600160a01b031614806111b45750836001600160a01b03166111a984610636565b6001600160a01b0316145b806111c457506111c48185610fb1565b949350505050565b826001600160a01b03166111df82610b24565b6001600160a01b0316146112055760405162461bcd60e51b815260040161065d90612b29565b6001600160a01b03821661122b5760405162461bcd60e51b815260040161065d90612a79565b61123481611764565b6001600160a01b0383166000908152600360205260409020611255906117a1565b6001600160a01b03821660009081526003602052604090206112769061172f565b60008181526001602052604080822080546001600160a01b0319166001600160a01b0386811691821790925591518493918716917fddf252ad1be2c89b69c2b068fc378daa952ba7f163c4a11628f55a4df523b3ef91a4505050565b6000826112e1575060006109c2565b828202828482816112ee57fe5b04146110375760405162461bcd60e51b815260040161065d90612b09565b816001600160a01b031661131f82610b24565b6001600160a01b0316146113455760405162461bcd60e51b815260040161065d90612b69565b61134e81611764565b6001600160a01b038216600090815260036020526040902061136f906117a1565b60008181526001602052604080822080546001600160a01b0319169055518291906001600160a01b038516907fddf252ad1be2c89b69c2b068fc378daa952ba7f163c4a11628f55a4df523b3ef908390a45050565b6060816113e957506040805180820190915260018152600360fc1b6020820152610594565b8160005b811561140157600101600a820491506113ed565b6060816040519080825280601f01601f19166020018201604052801561142e576020820181803883390190505b5090505b84156111c45760001990910190600a850660300160f81b81838151811061145557fe5b60200101906001600160f81b031916908160001a905350600a85049450611432565b5490565b6114868484846111cc565b611492848484846117b8565b610f2e5760405162461bcd60e51b815260040161065d90612a49565b600060606114bc83516118f2565b905060606114d382516002028551600401016118f2565b90506002818386856040516020016114ee94939291906127df565b60408051601f198184030181529082905261150891612702565b602060405180830381855afa158015611525573d6000803e3d6000fd5b5050506040513d601f19601f820116820180604052506111c49190810190611c46565b606081604051602001610b0e91906128e3565b6060806040518060600160405280603a8152602001612d6c603a913960408051602e8082526105e0820190925291925060609190602082016105c0803883390190505060408051602e808252606082810190935292935090916020820181803883390190505090506000826000815181106115d257fe5b60ff90921660209283029190910190910152600160005b86518110156116b557600087828151811061160057fe5b016020015160f81c905060005b8360ff1681101561166e5785818151811061162457fe5b602002602001015160ff166101000282019150603a828161164157fe5b0686828151811061164e57fe5b60ff90921660209283029190910190910152603a8204915060010161160d565b505b80156116ac57603a8106858460ff168151811061168957fe5b60ff90921660209283029190910190910152600190920191603a81049050611670565b506001016115e9565b5060005b8160ff16811015611724578484826001850360ff1603815181106116d957fe5b602002602001015160ff16815181106116ee57fe5b602001015160f81c60f81b83828151811061170557fe5b60200101906001600160f81b031916908160001a9053506001016116b9565b509095945050505050565b80546001019055565b6000818484111561175c5760405162461bcd60e51b815260040161065d9190612a38565b505050900390565b6000818152600260205260409020546001600160a01b03161561179e57600081815260026020526040902080546001600160a01b03191690555b50565b80546117b490600163ffffffff61110516565b9055565b60006117cc846001600160a01b0316611950565b6117d8575060016111c4565b600060606001600160a01b038616630a85bd0160e11b6117f661100e565b89888860405160240161180c94939291906129e2565b60408051601f198184030181529181526020820180516001600160e01b03166001600160e01b031990941693909317909252905161184a9190612702565b6000604051808303816000865af19150503d8060008114611887576040519150601f19603f3d011682016040523d82523d6000602084013e61188c565b606091505b5091509150816118be578051156118a65780518082602001fd5b60405162461bcd60e51b815260040161065d90612a49565b6000818060200190516118d49190810190611ca1565b6001600160e01b031916630a85bd0160e11b1493506111c492505050565b6060608082101561190d5761190682611989565b9050610594565b61191c60808306608001611989565b6119296080845b04611989565b60405160200161193a92919061270e565b6040516020818303038152906040529050610594565b6000813f7fc5d2460186f7233c927e7db2dcc703c0e500b653ca82273b7bfad8045d85a4708181148015906111c4575050151592915050565b6060816119a55750604080516000815260208101909152610594565b6040805160018082528183019092526001600160f81b031960f885901b16916060919060208201818038833901905050905081816000815181106119e557fe5b60200101906001600160f81b031916908160001a905350611a0861010085611923565b81604051602001611a1a92919061270e565b60405160208183030381529060405292505050610594565b80356109c281612c76565b80356109c281612c8a565b80356109c281612c93565b80516109c281612c93565b80356109c281612c9c565b80516109c281612c9c565b600082601f830112611a8557600080fd5b8135611a98611a9382612bb0565b612b89565b91508082526020830160208301858383011115611ab457600080fd5b611abf838284612c1d565b50505092915050565b600060208284031215611ada57600080fd5b60006111c48484611a32565b60008060408385031215611af957600080fd5b6000611b058585611a32565b9250506020611b1685828601611a32565b9150509250929050565b600080600060608486031215611b3557600080fd5b6000611b418686611a32565b9350506020611b5286828701611a32565b9250506040611b6386828701611a48565b9150509250925092565b60008060008060808587031215611b8357600080fd5b6000611b8f8787611a32565b9450506020611ba087828801611a32565b9350506040611bb187828801611a48565b925050606085013567ffffffffffffffff811115611bce57600080fd5b611bda87828801611a74565b91505092959194509250565b60008060408385031215611bf957600080fd5b6000611c058585611a32565b9250506020611b1685828601611a3d565b60008060408385031215611c2957600080fd5b6000611c358585611a32565b9250506020611b1685828601611a48565b600060208284031215611c5857600080fd5b60006111c48484611a53565b60008060408385031215611c7757600080fd5b6000611c358585611a48565b600060208284031215611c9557600080fd5b60006111c48484611a5e565b600060208284031215611cb357600080fd5b60006111c48484611a69565b600060208284031215611cd157600080fd5b813567ffffffffffffffff811115611ce857600080fd5b6111c484828501611a74565b600060208284031215611d0657600080fd5b60006111c48484611a48565b611d1b81612bf1565b82525050565b611d1b611d2d82612bf1565b612c55565b611d1b81612bfc565b611d1b81612c01565b611d1b611d5082612c01565b612c01565b6000611d6082612be4565b611d6a8185612be8565b9350611d7a818560208601612c29565b611d8381612c66565b9093019392505050565b6000611d9882612be4565b611da28185610594565b9350611db2818560208601612c29565b9290920192915050565b600081546001811660008114611dd95760018114611dfc57611e3b565b607f6002830416611dea8187610594565b60ff1984168152955085019250611e3b565b60028204611e0a8187610594565b9550611e1585612bd8565b60005b82811015611e3457815488820152600190910190602001611e18565b5050850192505b505092915050565b6000611e50600183610594565b600560f91b815260010192915050565b6000611e6d603283610594565b7f3c73766720786d6c6e733d5c22687474703a2f2f7777772e77332e6f72672f3281527118181817b9bb33ae11103bb4b23a341eae1160711b602082015260320192915050565b6000611ec1600a83610594565b691116113730b6b2911d1160b11b8152600a0192915050565b6000611ee7603283612be8565b7f4552433732313a207472616e7366657220746f206e6f6e20455243373231526581527131b2b4bb32b91034b6b83632b6b2b73a32b960711b602082015260400192915050565b6000611f3b601a83610594565b7f3b7374726f6b652d77696474683a313b5c223e3c2f726563743e0000000000008152601a0192915050565b6000611f74601c83612be8565b7f4552433732313a20746f6b656e20616c7265616479206d696e74656400000000815260200192915050565b6000611fad600383610594565b622e111f60e91b815260030192915050565b6000611fcc601b83612be8565b7f536166654d6174683a206164646974696f6e206f766572666c6f770000000000815260200192915050565b6000612005600383610594565b6204010960e91b815260030192915050565b6000612024602483612be8565b7f4552433732313a207472616e7366657220746f20746865207a65726f206164648152637265737360e01b602082015260400192915050565b600061206a601983612be8565b7f4552433732313a20617070726f766520746f2063616c6c657200000000000000815260200192915050565b60006120a3601183610594565b701116113232b9b1b934b83a34b7b7111d1160791b815260110192915050565b60006120d0602c83612be8565b7f4552433732313a206f70657261746f7220717565727920666f72206e6f6e657881526b34b9ba32b73a103a37b5b2b760a11b602082015260400192915050565b600061211e600483610594565b630d0e6d8560e31b815260040192915050565b600061213e600c83610594565b6b2e11103432b4b3b43a1eae1160a11b8152600c0192915050565b6000612166600783610594565b66697066733a2f2f60c81b815260070192915050565b6000612189601083612be8565b6f1d1bdad95b881b5d5cdd08195e1a5cdd60821b815260200192915050565b60006121b5600283610594565b609160f51b815260020192915050565b60006121d2602983612be8565b7f746f74616c20737570706c79206d757374206265206c657373207468616e206d815268617820737570706c7960b81b602082015260400192915050565b600061221d603883612be8565b7f4552433732313a20617070726f76652063616c6c6572206973206e6f74206f7781527f6e6572206e6f7220617070726f76656420666f7220616c6c0000000000000000602082015260400192915050565b600061227c600783610594565b66252c203530252960c81b815260070192915050565b600061229f602a83612be8565b7f4552433732313a2062616c616e636520717565727920666f7220746865207a65815269726f206164647265737360b01b602082015260400192915050565b60006122eb602983612be8565b7f4552433732313a206f776e657220717565727920666f72206e6f6e657869737481526832b73a103a37b5b2b760b91b602082015260400192915050565b6000612336600a83610594565b691e3932b1ba103c1eae1160b11b8152600a0192915050565b600061235c600283610594565b61227d60f01b815260020192915050565b600061237a602083612be8565b7f4552433732313a206d696e7420746f20746865207a65726f2061646472657373815260200192915050565b60006123b3600f83610594565b6e3d9134b6b0b3b2afb230ba30911d1160891b8152600f0192915050565b60006123de602183612be8565b7f536166654d6174683a206d756c7469706c69636174696f6e206f766572666c6f8152607760f81b602082015260400192915050565b6000612421602c83612be8565b7f4552433732313a20617070726f76656420717565727920666f72206e6f6e657881526b34b9ba32b73a103a37b5b2b760a11b602082015260400192915050565b600061246f602983612be8565b7f4552433732313a207472616e73666572206f6620746f6b656e2074686174206981526839903737ba1037bbb760b91b602082015260400192915050565b60006124ba600183610594565b602360f81b815260010192915050565b60006124d7602183612be8565b7f4552433732313a20617070726f76616c20746f2063757272656e74206f776e658152603960f91b602082015260400192915050565b600061251a600783610594565b662e11103c9eae1160c91b815260070192915050565b600061253d600283610594565b61016160f51b815260020192915050565b600061255b603183612be8565b7f4552433732313a207472616e736665722063616c6c6572206973206e6f74206f8152701ddb995c881b9bdc88185c1c1c9bdd9959607a1b602082015260400192915050565b60006125ae602b83610594565b7f5c222077696474683d5c2234355c22206865696768743d5c2234355c2220737481526a3cb6329eae113334b6361d60a91b6020820152602b0192915050565b60006125fb602883612be8565b7f6d73672e76616c7565206d75737420626520677261746572207468616e206d698152676e7420707269636560c01b602082015260400192915050565b6000612645602583612be8565b7f4552433732313a206275726e206f6620746f6b656e2074686174206973206e6f8152643a1037bbb760d91b602082015260400192915050565b600061268c602283612be8565b7f6d73672e73656e646572206d7573742062652063757272656e7420637265617481526137b960f11b602082015260400192915050565b60006126d0600683610594565b651e17b9bb339f60d11b815260060192915050565b60006126f2600183610594565b600360fb1b815260010192915050565b60006110378284611d8d565b600061271a8285611d8d565b91506111c48284611d8d565b6000612732828a611d8d565b915061273d82612329565b91506127498289611d8d565b91506127548261250d565b91506127608288611d8d565b915061276b826125a1565b91506127778287611d8d565b915061278282611f2e565b915061278d82612329565b91506127998286611d8d565b91506127a48261250d565b91506127b08285611d8d565b91506127bb826125a1565b91506127c78284611d8d565b91506127d282611f2e565b9998505050505050505050565b60006127ea82611e43565b91506127f68287611d8d565b915061280182611ff8565b915061280d8286611d8d565b91506128198285611d8d565b9150612824826126e5565b91506128308284611d8d565b9695505050505050565b600061284582611e60565b91506128518286611d8d565b915061285c82612131565b91506128688285611d8d565b915061287382611fa0565b915061287f8284611d8d565b915061288a826126c3565b95945050505050565b600061289e82612111565b91506128aa8285611d8d565b91506128b582612530565b91506128c18284611d8d565b91506111c48261226f565b60006128d782612159565b91506110378284611d8d565b60006128ee826121a8565b91506128fa8284611d44565b50602001919050565b600061290e826123a6565b915061291a8287611d8d565b915061292582611eb4565b91506129318286611dbc565b915061293c826124ad565b91506129488285611d8d565b915061295382612096565b915061295f8284611d8d565b91506128308261234f565b60006129768289611d44565b6020820191506129868288611d44565b6020820191506129968287611d44565b6020820191506129a68286611d21565b6014820191506129b68285611d21565b6014820191506129c68284611d44565b506020019695505050505050565b602081016109c28284611d12565b608081016129f08287611d12565b6129fd6020830186611d12565b612a0a6040830185611d3b565b81810360608301526128308184611d55565b602081016109c28284611d32565b602081016109c28284611d3b565b602080825281016110378184611d55565b602080825281016109c281611eda565b602080825281016109c281611f67565b602080825281016109c281611fbf565b602080825281016109c281612017565b602080825281016109c28161205d565b602080825281016109c2816120c3565b602080825281016109c28161217c565b602080825281016109c2816121c5565b602080825281016109c281612210565b602080825281016109c281612292565b602080825281016109c2816122de565b602080825281016109c28161236d565b602080825281016109c2816123d1565b602080825281016109c281612414565b602080825281016109c281612462565b602080825281016109c2816124ca565b602080825281016109c28161254e565b602080825281016109c2816125ee565b602080825281016109c281612638565b602080825281016109c28161267f565b60405181810167ffffffffffffffff81118282101715612ba857600080fd5b604052919050565b600067ffffffffffffffff821115612bc757600080fd5b506020601f91909101601f19160190565b60009081526020902090565b5190565b90815260200190565b60006109c282612c11565b151590565b90565b6001600160e01b03191690565b6001600160a01b031690565b82818337506000910152565b60005b83811015612c44578181015183820152602001612c2c565b83811115610f2e5750506000910152565b60006109c28260006109c282612c70565b601f01601f191690565b60601b90565b612c7f81612bf1565b811461179e57600080fd5b612c7f81612bfc565b612c7f81612c01565b612c7f81612c0456fe48617368437265617475726573206172652067656e6572617465206279206861736820696e20746865206d696e74696e67207472616e73616374696f6e2e20496d61676520737667206461746120616e6420746f6b656e206d657461646174612069732067656e65726174656420696e20736f6c696469747920697473656c662c206a757374206f6e636861696e2e20496d6167652077696c6c206265206465746572696f7261746564207768656e20796f75207472616e736665722063726561747572652e31323334353637383941424344454647484a4b4c4d4e505152535455565758595a6162636465666768696a6b6d6e6f707172737475767778797aa365627a7a7231582060d63d911361ec0c8846ada7b117c25ca845b68d20461e77072994ce96e4ca756c6578706572696d656e74616cf564736f6c63430005110040",
  "linkReferences": {},
  "deployedLinkReferences": {}
}